:020000040800F2
:1000000000040020050100080D0100080F01000890
:10001000110100081301000815010008000000008C
:1000200000000000000000000000000017010008B0
:1000300019010008000000001B0100081D01000854
:100040001F0100081F0100081F0100081F01000810
:100050001F0100081F0100081F0100081F01000800
:100060001F0100081F0100081F0100081F010008F0
:100070001F0100081F0100081F0100081F010008E0
:100080001F0100081F0100081F0100081F010008D0
:100090001F0100081F0100081F0100081F010008C0
:1000A0001F0100081F0100081F0100081F010008B0
:1000B0001F0100081F0100081F0100081F010008A0
:1000C0001F0100081F0100081F0100081F01000890
:1000D0001F0100081F0100081F0100081F01000880
:1000E0001F0100081F0100081F010008DFF810D0E1
:1000F00000F01AF80048004789040008AFF30080B8
:10010000000400200648804706480047FEE7FEE757
:10011000FEE7FEE7FEE7FEE7FEE7FEE7FEE7FEE7B7
:1001200009040008ED000008064C074D06E0E068F1
:1001300040F0010394E8070098471034AC42F6D32E
:10014000FFF7D8FFC4040008D404000801B502E09A
:100150000098401E009000980028F9D108BD2DE9B4
:10016000F04102460025002600200023002400273D
:1001700091F803C00CF00F0591F803C00CF0100CBF
:10018000BCF1000F03D091F802C04CEA050591F8CC
:1001900000C0BCF1000F31D0146800202BE04FF0FC
:1001A000010C0CFA00F3B1F800C00CEA03069E4201
:1001B00020D183004FF00F0C0CFA03F7BC4305FA73
:1001C00003FC4CEA040491F803C0BCF1280F06D1EB
:1001D0004FF0010C0CFA00FCC2F814C00AE091F8D0
:1001E00003C0BCF1480F05D14FF0010C0CFA00FC24
:1001F000C2F810C0401C0828D1D31460B1F800C068
:10020000BCF1FF0F34DD546800202EE000F1080C33
:100210004FF0010808FA0CF3B1F800C00CEA03062D
:100220009E4221D183004FF00F0C0CFA03F7BC4320
:1002300005FA03FC4CEA040491F803C0BCF1280F52
:1002400005D100F1080C08FA0CF8C2F8148091F8F6
:1002500003C0BCF1480F07D100F1080C4FF00108B2
:1002600008FA0CF8C2F81080401C0828CED354605D
:10027000BDE8F0810161704708B50121042000F05C
:100280003FF80120ADF8000004208DF80300694616
:100290000148FFF764FF08BD0008014008B50121CF
:1002A000102000F02DF84FF40050ADF800001020A1
:1002B0008DF8030003208DF8020069460F48FFF710
:1002C0004EFF4FF400510D48FFF7D4FF01211020DD
:1002D00000F016F84FF48040ADF8000010208DF8C3
:1002E000030003208DF8020069460448FFF737FF3A
:1002F0004FF480410148FFF7BDFF08BD00100140E9
:1003000029B1064A92690243044B9A6104E0034A08
:1003100092698243014B9A617047000000100240CD
:1003200010B500F001F810BD0CB500200190009050
:100330003348006840F480303149086000BF3048DD
:10034000006800F4003000900198401C0190009873
:1003500018B90198B0F5A06FF1D12948006800F4F0
:10036000003010B10120009001E0002000900098C2
:10037000012843D12348006840F01000214908605B
:100380000846006820F0030008600846006840F056
:10039000020008601A4840681949486008464068E9
:1003A00048600846406840F48060486008464068FD
:1003B00020F47C1048600846406840F4E81048602B
:1003C0000846006840F08070086000BF0C48006874
:1003D00000F000700028F9D00948406820F00300C0
:1003E000074948600846406840F00200486000BF86
:1003F0000348406800F00C000828F9D10CBD00004B
:10040000001002400020024010B51348006840F080
:1004100001001149086008464068104908400E492B
:100420004860084600680E4908400B4908600846C5
:10043000006820F4802008600846406820F4FE0030
:1004400048604FF41F008860FFF76AFF4FF00060BC
:100450000449086010BD0000001002400000FFF8D1
:10046000FFFFF6FE08ED00E002E008C8121F08C119
:10047000002AFAD170477047002001E001C1121F25
:10048000002AFBD170470000FFF708FFFFF7F4FEDA
:1004900013E04FF40050094908610948FFF756FE80
:1004A0004FF40050054948610548FFF74FFE0348E7
:1004B000C06880F480400149C860EAE7001001404C
:1004C000FFFF0F00D404000800000020000400001B
:0404D00078040008A4
:0400000508000105E9
:00000001FF
